{
  "contractName": "Election",
  "abi": [
    {
      "inputs": [],
      "payable": false,
      "stateMutability": "nonpayable",
      "type": "constructor"
    },
    {
      "anonymous": false,
      "inputs": [
        {
          "indexed": true,
          "internalType": "uint256",
          "name": "_candidateId",
          "type": "uint256"
        }
      ],
      "name": "votedEvent",
      "type": "event"
    },
    {
      "constant": true,
      "inputs": [
        {
          "internalType": "uint256",
          "name": "",
          "type": "uint256"
        }
      ],
      "name": "candidates",
      "outputs": [
        {
          "internalType": "uint256",
          "name": "id",
          "type": "uint256"
        },
        {
          "internalType": "string",
          "name": "name",
          "type": "string"
        },
        {
          "internalType": "uint256",
          "name": "voteCount",
          "type": "uint256"
        }
      ],
      "payable": false,
      "stateMutability": "view",
      "type": "function"
    },
    {
      "constant": true,
      "inputs": [],
      "name": "candidatesCount",
      "outputs": [
        {
          "internalType": "uint256",
          "name": "",
          "type": "uint256"
        }
      ],
      "payable": false,
      "stateMutability": "view",
      "type": "function"
    },
    {
      "constant": true,
      "inputs": [
        {
          "internalType": "address",
          "name": "",
          "type": "address"
        }
      ],
      "name": "voters",
      "outputs": [
        {
          "internalType": "bool",
          "name": "",
          "type": "bool"
        }
      ],
      "payable": false,
      "stateMutability": "view",
      "type": "function"
    },
    {
      "constant": false,
      "inputs": [],
      "name": "end",
      "outputs": [],
      "payable": false,
      "stateMutability": "nonpayable",
      "type": "function"
    },
    {
      "constant": false,
      "inputs": [
        {
          "internalType": "uint256",
          "name": "_candidateId",
          "type": "uint256"
        }
      ],
      "name": "vote",
      "outputs": [],
      "payable": false,
      "stateMutability": "nonpayable",
      "type": "function"
    }
  ],
  "bytecode": "0x608060405260016000806101000a81548160ff02191690831515021790555034801561002a57600080fd5b5061006f6040518060400160405280600b81526020017f43616e646964617465203100000000000000000000000000000000000000000081525061018460201b60201c565b6100b36040518060400160405280600b81526020017f43616e646964617465203200000000000000000000000000000000000000000081525061018460201b60201c565b6100f76040518060400160405280600b81526020017f43616e646964617465203300000000000000000000000000000000000000000081525061018460201b60201c565b61013b6040518060400160405280600b81526020017f43616e646964617465203400000000000000000000000000000000000000000081525061018460201b60201c565b61017f6040518060400160405280600b81526020017f43616e646964617465203500000000000000000000000000000000000000000081525061018460201b60201c565b6102a5565b6003600081548092919060010191905055506040518060600160405280600354815260200182815260200160008152506002600060035481526020019081526020016000206000820151816000015560208201518160010190805190602001906101ef929190610200565b506040820151816002015590505050565b828054600181600116156101000203166002900490600052602060002090601f016020900481019282601f1061024157805160ff191683800117855561026f565b8280016001018555821561026f579182015b8281111561026e578251825591602001919060010190610253565b5b50905061027c9190610280565b5090565b6102a291905b8082111561029e576000816000905550600101610286565b5090565b90565b61056e806102b46000396000f3fe608060405234801561001057600080fd5b50600436106100575760003560e01c80630121b93f1461005c5780632d35a8a21461008a5780633477ee2e146100a8578063a3ec138d1461015d578063efbe1c1c146101b9575b600080fd5b6100886004803603602081101561007257600080fd5b81019080803590602001909291905050506101c3565b005b610092610435565b6040518082815260200191505060405180910390f35b6100d4600480360360208110156100be57600080fd5b810190808035906020019092919050505061043b565b6040518084815260200180602001838152602001828103825284818151815260200191508051906020019080838360005b83811015610120578082015181840152602081019050610105565b50505050905090810190601f16801561014d5780820380516001836020036101000a031916815260200191505b5094505050505060405180910390f35b61019f6004803603602081101561017357600080fd5b81019080803573ffffffffffffffffffffffffffffffffffffffff1690602001909291905050506104fd565b604051808215151515815260200191505060405180910390f35b6101c161051d565b005b600160003373ffffffffffffffffffffffffffffffffffffffff1673ffffffffffffffffffffffffffffffffffffffff16815260200190815260200160002060009054906101000a900460ff1615610283576040517f08c379a000000000000000000000000000000000000000000000000000000000815260040180806020018281038252600d8152602001807f416c726561647920766f7465640000000000000000000000000000000000000081525060200191505060405180910390fd5b60008111801561029557506003548111155b610307576040517f08c379a00000000000000000000000000000000000000000000000000000000081526004018080602001828103825260118152602001807f496e76616c69642063616e64696461746500000000000000000000000000000081525060200191505060405180910390fd5b6000809054906101000a900460ff16610388576040517f08c379a000000000000000000000000000000000000000000000000000000000815260040180806020018281038252600e8152602001807f456c656374696f6e20656e64656400000000000000000000000000000000000081525060200191505060405180910390fd5b60018060003373ffffffffffffffffffffffffffffffffffffffff1673ffffffffffffffffffffffffffffffffffffffff16815260200190815260200160002060006101000a81548160ff0219169083151502179055506002600082815260200190815260200160002060020160008154809291906001019190505550807ffff3c900d938d21d0990d786e819f29b8d05c1ef587b462b939609625b684b1660405160405180910390a250565b60035481565b6002602052806000526040600020600091509050806000015490806001018054600181600116156101000203166002900480601f0160208091040260200160405190810160405280929190818152602001828054600181600116156101000203166002900480156104ed5780601f106104c2576101008083540402835291602001916104ed565b820191906000526020600020905b8154815290600101906020018083116104d057829003601f168201915b5050505050908060020154905083565b60016020528060005260406000206000915054906101000a900460ff1681565b60008060006101000a81548160ff02191690831515021790555056fea265627a7a7231582035219a1fc0d34e59adb236f6d367d73cc9a2d349f116d5a75353874f1359c32a64736f6c63430005100032",
  "source": "pragma solidity ^0.5.0;\r\n\r\n/**\r\n * The Election contract does this and that...\r\n */\r\ncontract Election {\r\n\r\n\tstruct Candidate {\r\n\t\tuint id;\r\n\t\tstring name;\r\n\t\tuint voteCount;\r\n\t}\r\n\r\n\tbool goingon = true;\r\n\tmapping (address => bool) public voters;\r\n\tmapping (uint => Candidate) public candidates;\r\n\tuint public candidatesCount;\r\n\r\n\tevent votedEvent (\r\n\t\tuint indexed _candidateId\r\n\t);\r\n\r\n    constructor() public {\r\n    \taddCandidate(\"Candidate 1\");\r\n    \taddCandidate(\"Candidate 2\");\r\n    \taddCandidate(\"Candidate 3\");\r\n    \taddCandidate(\"Candidate 4\");\r\n    \taddCandidate(\"Candidate 5\");\r\n    }\r\n\r\n    function addCandidate (string memory _name) private {\r\n    \tcandidatesCount++;\r\n    \tcandidates[candidatesCount] = Candidate(candidatesCount, _name, 0);\r\n    }\r\n\r\n    function end() public {\r\n    \tgoingon = false;\r\n    }\r\n\r\n    function vote (uint _candidateId) public {\r\n\r\n    \trequire (!voters[msg.sender], \"Already voted\");\r\n\r\n    \t\r\n    \trequire (_candidateId > 0 && _candidateId <= candidatesCount, \"Invalid candidate\");\r\n\r\n\r\n    \trequire (goingon, \"Election ended\");\r\n\r\n    \tvoters[msg.sender] = true;\r\n\r\n    \tcandidates[_candidateId].voteCount++;\r\n\r\n    \temit votedEvent(_candidateId);\r\n  \r\n    \t\r\n    }\r\n    \r\n}\r\n\r\n",
  "sourcePath": "E:/Project/Blockchain-based Secure Voting System/contracts/Election.sol",
  "compiler": {
    "name": "solc",
    "version": "0.5.16+commit.9c3226ce.Emscripten.clang"
  },
  "schemaVersion": "3.2.3",
  "updatedAt": "2021-02-09T08:36:18.832Z",
  "networkType": "ethereum",
  "devdoc": {
    "methods": {}
  },
  "userdoc": {
    "methods": {},
    "notice": "The Election contract does this and that..."
  }
}