{
  "contractName": "Election",
  "abi": [
    {
      "inputs": [],
      "payable": false,
      "stateMutability": "nonpayable",
      "type": "constructor"
    },
    {
      "anonymous": false,
      "inputs": [
        {
          "indexed": true,
          "internalType": "uint256",
          "name": "_candidateId",
          "type": "uint256"
        }
      ],
      "name": "votedEvent",
      "type": "event"
    },
    {
      "constant": true,
      "inputs": [
        {
          "internalType": "uint256",
          "name": "",
          "type": "uint256"
        }
      ],
      "name": "candidates",
      "outputs": [
        {
          "internalType": "uint256",
          "name": "id",
          "type": "uint256"
        },
        {
          "internalType": "string",
          "name": "name",
          "type": "string"
        },
        {
          "internalType": "uint256",
          "name": "voteCount",
          "type": "uint256"
        }
      ],
      "payable": false,
      "stateMutability": "view",
      "type": "function"
    },
    {
      "constant": true,
      "inputs": [],
      "name": "candidatesCount",
      "outputs": [
        {
          "internalType": "uint256",
          "name": "",
          "type": "uint256"
        }
      ],
      "payable": false,
      "stateMutability": "view",
      "type": "function"
    },
    {
      "constant": true,
      "inputs": [
        {
          "internalType": "address",
          "name": "",
          "type": "address"
        }
      ],
      "name": "voters",
      "outputs": [
        {
          "internalType": "bool",
          "name": "",
          "type": "bool"
        }
      ],
      "payable": false,
      "stateMutability": "view",
      "type": "function"
    },
    {
      "constant": false,
      "inputs": [],
      "name": "end",
      "outputs": [],
      "payable": false,
      "stateMutability": "nonpayable",
      "type": "function"
    },
    {
      "constant": false,
      "inputs": [
        {
          "internalType": "uint256",
          "name": "_candidateId",
          "type": "uint256"
        }
      ],
      "name": "vote",
      "outputs": [],
      "payable": false,
      "stateMutability": "nonpayable",
      "type": "function"
    }
  ],
  "bytecode": "0x608060405260016000806101000a81548160ff02191690831515021790555034801561002a57600080fd5b506100786040518060400160405280600b81526020017f43616e64696461746520310000000000000000000000000000000000000000008152506101b1640100000000026401000000009004565b6100c56040518060400160405280600b81526020017f43616e64696461746520320000000000000000000000000000000000000000008152506101b1640100000000026401000000009004565b6101126040518060400160405280600b81526020017f43616e64696461746520330000000000000000000000000000000000000000008152506101b1640100000000026401000000009004565b61015f6040518060400160405280600b81526020017f43616e64696461746520340000000000000000000000000000000000000000008152506101b1640100000000026401000000009004565b6101ac6040518060400160405280600b81526020017f43616e64696461746520350000000000000000000000000000000000000000008152506101b1640100000000026401000000009004565b6102d2565b60036000815480929190600101919050555060405180606001604052806003548152602001828152602001600081525060026000600354815260200190815260200160002060008201518160000155602082015181600101908051906020019061021c92919061022d565b506040820151816002015590505050565b828054600181600116156101000203166002900490600052602060002090601f016020900481019282601f1061026e57805160ff191683800117855561029c565b8280016001018555821561029c579182015b8281111561029b578251825591602001919060010190610280565b5b5090506102a991906102ad565b5090565b6102cf91905b808211156102cb5760008160009055506001016102b3565b5090565b90565b61058b806102e16000396000f3fe608060405234801561001057600080fd5b5060043610610074576000357c0100000000000000000000000000000000000000000000000000000000900480630121b93f146100795780632d35a8a2146100a75780633477ee2e146100c5578063a3ec138d1461017a578063efbe1c1c146101d6575b600080fd5b6100a56004803603602081101561008f57600080fd5b81019080803590602001909291905050506101e0565b005b6100af610452565b6040518082815260200191505060405180910390f35b6100f1600480360360208110156100db57600080fd5b8101908080359060200190929190505050610458565b6040518084815260200180602001838152602001828103825284818151815260200191508051906020019080838360005b8381101561013d578082015181840152602081019050610122565b50505050905090810190601f16801561016a5780820380516001836020036101000a031916815260200191505b5094505050505060405180910390f35b6101bc6004803603602081101561019057600080fd5b81019080803573ffffffffffffffffffffffffffffffffffffffff16906020019092919050505061051a565b604051808215151515815260200191505060405180910390f35b6101de61053a565b005b600160003373ffffffffffffffffffffffffffffffffffffffff1673ffffffffffffffffffffffffffffffffffffffff16815260200190815260200160002060009054906101000a900460ff16156102a0576040517f08c379a000000000000000000000000000000000000000000000000000000000815260040180806020018281038252600d8152602001807f416c726561647920766f7465640000000000000000000000000000000000000081525060200191505060405180910390fd5b6000811180156102b257506003548111155b610324576040517f08c379a00000000000000000000000000000000000000000000000000000000081526004018080602001828103825260118152602001807f496e76616c69642063616e64696461746500000000000000000000000000000081525060200191505060405180910390fd5b6000809054906101000a900460ff166103a5576040517f08c379a000000000000000000000000000000000000000000000000000000000815260040180806020018281038252600e8152602001807f456c656374696f6e20656e64656400000000000000000000000000000000000081525060200191505060405180910390fd5b60018060003373ffffffffffffffffffffffffffffffffffffffff1673ffffffffffffffffffffffffffffffffffffffff16815260200190815260200160002060006101000a81548160ff0219169083151502179055506002600082815260200190815260200160002060020160008154809291906001019190505550807ffff3c900d938d21d0990d786e819f29b8d05c1ef587b462b939609625b684b1660405160405180910390a250565b60035481565b6002602052806000526040600020600091509050806000015490806001018054600181600116156101000203166002900480601f01602080910402602001604051908101604052809291908181526020018280546001816001161561010002031660029004801561050a5780601f106104df5761010080835404028352916020019161050a565b820191906000526020600020905b8154815290600101906020018083116104ed57829003601f168201915b5050505050908060020154905083565b60016020528060005260406000206000915054906101000a900460ff1681565b60008060006101000a81548160ff02191690831515021790555056fea265627a7a723158203a99eaf4e4384bc55b303e95b4fa73c6dbc6f71dce62d3a337c20cda83af6d1864736f6c63430005100032",
  "source": "pragma solidity ^0.5.0;\r\n\r\n/**\r\n * The Election contract does this and that...\r\n */\r\ncontract Election {\r\n\r\n\tstruct Candidate {\r\n\t\tuint id;\r\n\t\tstring name;\r\n\t\tuint voteCount;\r\n\t}\r\n\r\n\tbool goingon = true;\r\n\tmapping (address => bool) public voters;\r\n\tmapping (uint => Candidate) public candidates;\r\n\tuint public candidatesCount;\r\n\r\n\tevent votedEvent (\r\n\t\tuint indexed _candidateId\r\n\t);\r\n\r\n    constructor() public {\r\n    \taddCandidate(\"Candidate 1\");\r\n    \taddCandidate(\"Candidate 2\");\r\n    \taddCandidate(\"Candidate 3\");\r\n    \taddCandidate(\"Candidate 4\");\r\n    \taddCandidate(\"Candidate 5\");\r\n    }\r\n\r\n    function addCandidate (string memory _name) private {\r\n    \tcandidatesCount++;\r\n    \tcandidates[candidatesCount] = Candidate(candidatesCount, _name, 0);\r\n    }\r\n\r\n    function end() public {\r\n    \tgoingon = false;\r\n    }\r\n\r\n    function vote (uint _candidateId) public {\r\n\r\n    \trequire (!voters[msg.sender], \"Already voted\");\r\n\r\n    \t\r\n    \trequire (_candidateId > 0 && _candidateId <= candidatesCount, \"Invalid candidate\");\r\n\r\n\r\n    \trequire (goingon, \"Election ended\");\r\n\r\n    \tvoters[msg.sender] = true;\r\n\r\n    \tcandidates[_candidateId].voteCount++;\r\n\r\n    \temit votedEvent(_candidateId);\r\n  \r\n    \t\r\n    }\r\n    \r\n}\r\n\r\n",
  "sourcePath": "E:/Project/Blockchain-based Secure Voting System/contracts/Election.sol",
  "compiler": {
    "name": "solc",
    "version": "0.5.16+commit.9c3226ce.Emscripten.clang"
  },
  "schemaVersion": "3.2.3",
  "updatedAt": "2021-02-08T16:51:20.032Z",
  "networkType": "ethereum",
  "devdoc": {
    "methods": {}
  },
  "userdoc": {
    "methods": {},
    "notice": "The Election contract does this and that..."
  }
}